:020000040000FA
:10000000012803138316FF30860083120608A00020
:100010000608A10083121030890083160814831289
:100020000808900083121130890083160814831287
:10003000080891001B289401930120089002031CDA
:100040002E2821089102031C2928930A0319940AD7
:100050001D28900803192E289003252821089107B0
:10006000200890070230A3001130A5001330A4002F
:1000700024088400000888002508890003138316DB
:10008000081555308900AA3089008814081E4628B2
:0C00900008128312A50AA40AA30B38284A
:00000001FF
