:020000040000FA
:020000000528D1
:080008004128031383161F3089
:10001000850000308600073081008312A0308B00FD
:100020000030810083129501013090001008860095
:100030001508003A031D3028900C10088600033084
:100040009300083092007A30910027201828910BF5
:100050002728920B2728930B27280800950118289A
:10006000950132281508003A031D2E28900D10081E
:10007000860003309300083092007A3091002720E8
:100080003228851947284428013094005128140843
:10009000013A03194C285128013095000030940092
:0600A00051280B110900BC
:00000001FF
