:0300000002001FDC
:04000B0012042D327C
:04001B0012044B324E
:10001F001203FF02014F200121E539ADB06D20E23F
:10002F001EE539ADB06D20E32AE539ADB06D20E4A2
:10003F0036E539ADB06D20E54232D203C20132E56B
:10004F003930E20985B03912052A02003085B039FE
:10005F0002009EE53930E30985B03912052A020006
:10006F003885B0390200BFE53930E40985B039125F
:10007F00052A02004085B0390200E0E53930E50974
:10008F0085B03912052A02004885B0390201117571
:10009F00360112052A120142AB32BB010EC2B775EF
:1000AF003832853836753704D28C321532D2033256
:1000BF0075360112052A120142AB32BB100EC2B7C0
:1000CF00753832853836753704D28C320532D20303
:1000DF003275360112052A120142AB33BB010EC233
:1000EF00B7753864853836753702D28C321533AB15
:1000FF0033BB010DC2B7753864853836753702D2F8
:10010F008C3275360112052A120142AB33BB100E29
:10011F00C2B7753864853836753702D28C320533DD
:10012F00AB33BB100DC2B7753864853836753702DF
:10013F00D28C32758DD8758BF07534077535D032FA
:10014F00759055C2B7753832853836753704D28CED
:10015F0020000C12002530030302048F02015FE51B
:10016F009003F590C20002015F75907F20000C1282
:10017F00002530030302048F02017BE59003F59005
:10018F00C20002017B7590FE20000C120025300387
:10019F000302048F020197E59023F590C20002013C
:1001AF00977590F020000C12002530030302048F86
:1001BF000201B3E590C4F590C2000201B37590F04F
:1001CF0020000C12002530030302048F0201CFE53B
:1001DF009023F590C2000201CF75900F20000C12F2
:1001EF00002530030302048F0201EBE59003F59025
:1001FF00C2000201EB75900020000C1200253003A5
:10020F000302048F020207E590F4F590C200020288
:10021F000775900120000C12002530030302048F94
:10022F00020223E590232401F590C20002022375F8
:10023F0090FE20000C12002530030302048F0202EF
:10024F0041E590239401F590C20002024175901888
:10025F0020000C12002530030302048F02025FAC52
:10026F0090BC8108759018C20002025FE59054F0AF
:10027F0023FDE590540F03FEED4EF590C2000202F0
:10028F005F75908120000C12002530030302048F4C
:10029F00020293AC90BC1808759081C200020293C1
:1002AF00E59054F003FDE590540F23FEED4EF590CD
:1002BF00C2000202937590FED20220000C1200259C
:1002CF0030030302048F0202C9E590C394FE600F4E
:1002DF00E590C3947F60030202F3D2020202F3C2DD
:1002EF00020202F3E59030020803F590C200020209
:1002FF00C923F590C2000202C9759001D2022000F5
:10030F000C12002530030302048F02030DE590C386
:10031F009401600FE590C394806003020337D2020B
:10032F00020337C202020337E59030020803F5904B
:10033F00C20002030D23F590C20002030D75903F1A
:10034F00D20220000C12002530030302048F020397
:10035F0051E590C394FC600FE590C3943F60030296
:10036F00037BD20202037BC20202037BE5903002C1
:10037F000803F590C20002035123F590C200020357
:10038F00517590C0D20220000C12002530030302D9
:10039F00048F020395E590C39403600FE590C39417
:1003AF00C060030203BFD2020203BFC2020203BF37
:1003BF00E59030020803F590C20002039523F590F3
:1003CF00C200020395759055C2B77538328538361D
:1003DF00753704D28C20000C120025300303020461
:1003EF008F0203E4E590F45455F590C2000203E444
:1003FF0075393C753201753301E53375F00AA4F890
:10040F007534077535D0D2AF758DD8758BF0758C67
:0E041F00D8758AF0D2ABD2A9758911D28E227F
:10042D00F540D5360B1537E537600EB2B785383642
:10043D00758CD8758AF0E54032C28CE54032F540B6
:10044D00D809D200E53375F00AA4F8C3E535940157
:10045D00F535E5349400F534A935AA34B9001ABA46
:10046D000017A932B91008753201D20102048005B6
:10047D0032D20175340B7535B8758DD8758BF0E5A5
:02048D004032FB
:10048F00AC32BC0105C20302014FAC32BC0205C243
:10049F0003020178AC32BC0305C203020194AC32F3
:1004AF00BC0405C2030201B0AC32BC0505C2030295
:1004BF0001CCAC32BC0605C2030201E8AC32BC076A
:1004CF0005C203020204AC32BC0805C203020220BB
:1004DF00AC32BC0905C20302023EAC32BC0A05C2F3
:1004EF000302025CAC32BC0B05C203020290AC32B9
:1004FF00BC0C05C2030202C4AC32BC0D05C2030220
:10050F000308AC32BC0E05C20302034CAC32BC0F65
:0B051F0005C203020390C2030203D4D4
:0D052A007C017D147EF9DEFEDDFADCF62298
:00000001FF
