:03000000020238C1
:04000B001201FB32B1
:04001B0012009A3203
:080003008142241818244281F7
:08000F00AA55AA55AA55AA55ED
:08001F000001020304050607BD
:08002700A55A96699966A55AD5
:08002F0081C3E7FFE7C3810074
:080037007E3C1800183C7EFF1E
:08003F00924924120904020198
:08004700B66CD8B060C0800067
:08004F0000FF00FF00FF00FFAD
:08005700F0783C1E0F87C3E1A5
:08005F000F1E3C78F0E1C3879D
:080067000F8ECCE8F071331795
:08006F0080814042202410189A
:08007700966996699669966985
:08007F00FFFEFCF8F0E0C08078
:0800870080C0E0F0F8FCFEFF70
:10008F007DFF7EC4DEFEDDFA7DFF22C28E758D3CC4
:10009F00758BAFDC1EBF02087C051FD2B70200C2F2
:1000AF00BF01087C0A1FC2B70200C2BF0007D2B748
:1000BF000200C4D28E22BB0103900002BB02039048
:1000CF00000EBB030390001EBB0403900026BB056C
:1000DF000390002EBB0603900036BB070390003E33
:1000EF00BB0803900046BB090390004EBB0A039068
:1000FF000056BB0B0390005EBB0C03900066BB0D5C
:10010F000390006EBB0E03900076BB0F0390007E32
:10011F00BB100390008622B9010A75200175216278
:10012F0075227922B9020A7520017521817522A9DC
:10013F0022B9030A7520017521C37522F022B90473
:10014F000A7520017521F47522AB22B9050A7520B5
:10015F000275212675226622B9060A7520027521BD
:10016F00877522DD22B9070A7520027521EA7522EB
:10017F005422B9080A75200375218675224522B9C4
:10018F00090A75200475210F7522B722B90A0A755D
:10019F00200475217175222E22B90B0A7520047562
:1001AF0021D27522A622B90C0A75200575219675E4
:1001BF00229322B90D0A75200675215A75228022C5
:1001CF00B90E0A75200775211E75226D22B90F0A07
:1001DF007520077521E175225B22B9100C75200877
:1001EF007521A57522480201F8790022D5211D75C8
:1001FF0021FFD520170B7521BE752002BB11027B85
:10020F0010BB10087C0A7F02C2B7D28E1200C5DA6B
:10021F0017E9FAE58228F582E5833400F583E49344
:10022F00F59008B809027801227F027581077521C0
:10023F0028752002758911D2AFD2A9D2AB758C0067
:10024F00758A00D28CC28E758D3C758BAF7B017910
:10025F00017A01780120B21D12008F30B2FD752195
:10026F00287520021BBB00027B01BB01E87F027CCB
:10027F000AC2B7D28E20B31D12008F30B3FD752185
:10028F00287520020BBB11027B10BB10E87F027C8C
:10029F000AC2B7D28E20B41D12008F30B4FD752163
:1002AF002875200219B900027901B901E87F007C95
:1002BF0014C2B7D28E20B59D12008F30B5FD7521B7
:1002CF002875200209B911027910B910E87F007C56
:0B02DF0014C2B7D28E02026402023883
:00000001FF
