:060000000C9441000C9479
:1000060000000C9400000C9400000C9400000C946A
:1000160000000C9400000C9400000C9400000C945A
:1000260000000C9400000C9400000C9400000C944A
:1000360000000C9400000C9400000C9400000C943A
:1000460000000C9400000C9400000C9400000A00C0
:1000560048E1FA3ECDCC4C3D0AD7A33B6F12033A9A
:1000660017B75138ACC5A73650574D2025752025F2
:10007600630A00000100040054000000F894EE2713
:10008600ECBBF1E0FBBFEBBFE5BFF8E1F1BDE1BDC5
:100096008DE0A2E0BB27ED938A95E9F780E094E036
:1000A600A0E6ED930197E9F7EAE7F0E085919591EF
:1000B600009761F0A591B59105901590BF01F001EB
:1000C60005900D920197E1F7FB01F0CFEFE5EDBF4B
:1000D600E4E0EEBFC0E6D1E00C947100E0E0EBBBDB
:1000E600EABBE8BBE7BBE5BBE4BBE2BBE0E2E1BBE6
:1000F600E0E0E3BFE2BFECBFEEBDECEFEDBDE1E05B
:10010600ECBDE3E0EBBDEFEFEABDE3E0E9BDEFEF09
:10011600E8BDE3E0E7BDEFEFE6BDE3E8EFBDE9E00C
:10012600EEBDE0E0EBB9E8E0EAB9E6E8E0BDE0E024
:10013600E0BDE3E0E9B9E0E0E2BDE5BDE4BDE3BD75
:10014600E5BFE4BFE9BFE0E8E8B9E0E0E0BFE6E626
:10015600E41510F00C94B0004424E42DFF27662724
:100166007727AFEFB3E080E090E00E945B06DF0107
:10017600CB01E4E6F0E060E070E00E948E06E093DA
:100186006001F09361016093620170936301EEE692
:10019600F0E0FA93EA93E42DFF27662777270E947B
:1001A600E006E5E2F0E060E070E00E94E00688E04C
:1001B6000E94EC042A96A0916001B09161018091A1
:1001C600620190916301E8E00E943F06EBBDE09179
:1001D6006001EABDEAE04E0EE4E1F0E0FA93EA934C
:1001E6000E94EE05B4CFFFCF5F9BFECFECB1089522
:1001F6005D9BFECFE881ECB921960895A881B9816F
:100206000E94D006309711F40C941201ED91FD91E5
:100216003196FE93EE933197AA81A08304C0EA81BA
:10022600EA930E94FB002396089524971A930A9353
:10023600A885A63010F40C942201E5E0E887E8854D
:10024600A6E5B0E0F0E00E944B06EA0FFB1F0E9415
:10025600DA060E940D050E948C070E94120500E036
:10026600E0E0F0E060E87FE30E9417050E941C05CD
:100276000E944D0810F40C9448010E9421050E942A
:10028600DA070E9417050F5FF1CF003011F00C94CA
:1002960051010E942A05E0E3EC9324C0E02F0150AF
:1002A600E03011F40C9475010E9421050E9431057D
:1002B6000E9417050E941C050E940C080E941B073D
:1002C6001E2F0E942A050E943D05AA81BB818C81B2
:1002D6009D810E9442050E94DA070E940D050E9438
:1002E6004805DCCFE885E03011F00C947D010E94D2
:1002F6004D0508950E942A05EEE2EC93E885E1504B
:10030600E887EF5F11F40C94A0010E940D050E948E
:1003160055050E941205E985FA856B857C850E9444
:100326001B071E2F0E942A050E943D050E940D05EF
:100336000E9442050E944805E1CF0E944D0508959E
:1003460024970E947808E0E0F0E060E87FE30E94EE
:100356005C05AA85A63010F40C94B301E5E0EA87A3
:100366000A85E02F0150E03011F40C94BF010E9481
:1003760061050E945C05F5CFEB85FC856D857E8564
:100386000E946D0811F00C94CE0120E00E946105D8
:100396000E945C053CC02A850E94660509F010F49F
:1003A6000C94E4010E9461050E945C050E946605AA
:1003B60010F40C94E3010E9471050E947605F6CFB5
:1003C60011C00E94660510F00C94F1010E9471059F
:1003D6000E9455050E9482052150F3CF0E946105B7
:1003E6000E945C05EB85FC856D857E85A0E0B0E00E
:1003F60080E09FE30E948C070E9482050E946605AA
:1004060010F40C940A020E9471050E94760500E021
:10041600EA85E01710F40C944702AB81BC818D810C
:100426009E81E0E0F0E060E271E40E9431050E9406
:100436005C05EB81FC816D817E810E9471050E94C5
:100446000C080E941B071E2F0E9487050E943D056F
:100456000E944205AB81BC818D819E810E94DA0794
:100466000E9471050E94E5060E9485070E9482058A
:10047600E02F0F5FE03011F40C944202C9CF0E94C6
:100486008705EEE2EC93C4CF0E948E05A985A08372
:10049600203014F00C9454020E948705EDE2EC9390
:1004A60021952A3014F40C9462020E948E05BF0135
:1004B600A22FEAE00E948906E05DDB01EC930E9430
:1004C6008E05BF01A22FEAE00E94B406E05DDB01C3
:1004D600EC93AF81B885E0E0EC930E947F082F96FD
:1004E60008956C970E94750800E0EEA1FFA1319671
:1004F600EEA3FFA33197E4913E2FE03011F40C9464
:10050600E804E02FE03011F00C949202353211F03D
:100516000C948F0201E002C00E94950555C2E1309D
:1005260011F00C94B702353211F00C949E020E9421
:10053600950500E049C202E0E0E0E98B10E03D32BB
:1005460011F00C94A80211E03FC23B3211F00C945A
:10055600AF02EBE2E98B38C2303211F00C94B602EE
:10056600E0E2E98B31C204C0E23011F00C94C4021F
:1005760040E003E0303311F00C94C302106824C24B
:1005860004C0E33011F00C94E402303310F40C9400
:10059600D1023A3310F00C94D10201C009C0A42F45
:1005A600EAE0EA9FF0014E2FE32FE0534E0F0CC214
:1005B60050E03E3211F00C94E20204E005C219C08C
:1005C60004C0E43011F00C940403303310F40C949E
:1005D600F1023A3310F00C94F10201C00AC0106225
:1005E600A52FEAE0EA9FF0015E2FE32FE0535E0FAE
:1005F600EBC13C3611F00C940303126005E0E4C134
:1006060004C0E53011F00C94E704E32FE33611F053
:100616000C9414030E949C05EC910E94A305D3C17F
:1006260004C0E53411F00C94190304C0E53611F04A
:100636000C941E0304C0E63611F00C946F03FE0101
:100646007296EA87FB870E949C050E94AA05DF0135
:10065600CB010E94710814F40C943803A989AB32BB
:1006660011F00C94370309C012C00E94B1050E9414
:10067600F2060E94B605EDE2E98B17FF04C0E98990
:100686000E94A30504C00E94BB05A989A08315FD8D
:1006960001C055E0363611F00C945D030E94B10599
:1006A6000E94E0065A93EF85F889FA93EA930E942E
:1006B60018010CC00E94B1050E94E0065A933A93B5
:1006C600E889F989FA93EA930E94A301FE017296DA
:1006D6000E94C20529C004C0E33711F00C947B03C5
:1006E6000E949C050E94D0060E94C20511C004C04B
:1006F600E03711F00C949D030E949C050E94D006E1
:10070600EA87FB87FA93EA930E94E3050E2F1860A7
:100716001F77503011F40C949503501710F00C9479
:10072600950301C001C0052F50E0E0E0E88B20E012
:100736007EC004C0E43611F00C94A20304C0E9366E
:1007460011F00C94A803146004C0E53711F00C9462
:10075600C103EAE0E88B11FF08C0E0E0FAEC6AE9C1
:100766007BE30E94CA050AE026C0E0E1F7E260E00A
:1007760070E00E94CA0505E01EC004C0E83511F00D
:100786000C94C703186004C0E83711F00C94E60413
:10079600E0E1E88B11FF08C0E0E0F0E060E070E126
:1007A6000E94CA0508E007C0E0E0F0E160E070E002
:1007B6000E94CA0504E0503011F40C94E4031F773C
:1007C60001C051E011FF05C00E949C050E94AA05C8
:1007D60013C012FF09C00E949C050E94D0060E9409
:1007E60056060E94B60508C00E949C050E94D006C7
:1007F600662777270E94B60512FF18C00E94CF050C
:100806000E94710814F00C9410040E94B1050E9415
:1008160036060E94B605EDE2E98BE989E03011F46F
:100826000C9418040F5F5F5F01C01B7F252F10FD1E
:1008360019C0041710F00C942504241710F00C941A
:10084600250401C00FC017FF08C012FF04C01B7F9C
:100856003989015001C030E301C030E20E9495059C
:100866004150E7CF051710F00C945104106112FFA8
:100876000BC01B7FE9890E94A305403011F40C943C
:100886004504415001505150E0E30E94A305403019
:1008960011F40C944F0441505150E4CF202FE889B5
:1008A600E03011F00C947204203011F40C947104B1
:1008B60013FF06C00E94BB05E4910E94A30507C072
:1008C600AA85BB85ED91AA87BB870E94A305403008
:1008D60011F40C946F0441502150E6CF69C00E9478
:1008E600D4050E948E063E2F3A3010F40C948104F3
:1008F60013FF02C0395C01C0395A01C0305D14FFD4
:1009060001C032C0313310F00C949804AC85BD851B
:100916008E859F85A130E0E0BE07E0E08E07E0E02F
:100926009E0711F40C94980401C012C0521710F4DB
:100936000C949F0430E30CC0421710F40C94A604E8
:1009460010FD01C001C017C030E217FF0DC030E333
:10095600106112FF09C01B7FE9890E94A305403080
:1009660011F40C94B70441500E949505403011F4DF
:100976000C94BE04415021500E94D4050E94C0062A
:100986000E94B605E889AC85BD858E859F85FF27C3
:10099600662777270E948E060E94CA05EC85FD858C
:1009A6006E857F850E946D0811F40C94DB0497CF49
:1009B60010FF09C0403011F40C94E6044150E0E207
:1009C6000E94A305F7CF00E090CD0E947C08A89670
:1009D6000895FF92F82E22971A930A93DE010E9439
:1009E60032068D01E0E0EA83EB83DE0114960E9475
:1009F60032060E94D006FA93EA931A930A93FE01EE
:100A06003696FA93EA930E94740219810881249615
:100A1600FF900895A985BA858B859C850895E987F9
:100A2600FA876B877C870895EA83FB836C837D83D3
:100A36000895EA81FB816C817D81ECCFAA81BB811F
:100A46008C819D81E0E0F0E060E271E40895AE8182
:100A5600BF811196AE83BF83119708950E940C083B
:100A6600A0E0B0E080E09FE30E948C070E94E006D1
:100A76000C942906E12FE05DEC93E12F0895FF2702
:100A8600662777270E944E0708950E94E5060E9472
:100A96008507C5CFAE81BF81E0E0EC93198108815F
:100AA6002D960895E0E0F0E060E271E40E94DA0736
:100AB6000895EB83FC836D837E830895AB81BC81AF
:100AC6008D819E81EFCFEB81FC816D817E81AB852F
:100AD600BC858D859E850E944D080895AB85BC8595
:100AE6008D859E850895E0E0F0E060E271E40E9465
:100AF6000C08EB87FC876D877E872F5F0895EB8751
:100B0600FC876D877E870895AF81B8851196AF8380
:100B1600B88711970895EF81F8853196EF83F887A6
:100B2600319708953A93EBA1FCA1FA93EA930C94BA
:100B36000101ACA1BDA11497ACA3BDA31496089561
:100B4600EA93EBA1FCA1FA93EA930C9401010E94AB
:100B5600D406EE83FF83688779870895EE81FF8147
:100B6600688579850895EE83FF8368877987089578
:100B7600EA85FB853196EA87FB8731970895EA87F0
:100B8600FB87FA93EA930E94D9050E2F0895EC8706
:100B9600FD876E877F870895AE81BF818885998599
:100BA6000895EC85FD856E857F85F6CFA991B9916F
:100BB600EE27FF276D91662311F03196FBCF08953E
:100BC600AA27BB27E991F9910590002011F011960B
:100BD600FBCFFD010895E991F991309639F083E351
:100BE60097E00197F1F7A8953197C9F708957B81AA
:100BF6006A81F981E88177FB770F67FD7160972F2E
:100C06009E5781F078F0983190F4AA27BB27882761
:100C160008948795B795A7959A95D1F7EA23FB236C
:100C2600682305C0E8947727EE27FF2766276F77A6
:100C3600769508F4606877F9A991B99189919991A7
:100C4600EA17FB076807790797FB0895D0DF09F4D1
:100C56000895F6F79FEBAA27BB2780E85AC1002420
:100C6600AF0DB01D0895E095F09560957095EF5F16
:100C7600FF4F6F4F7F4F0895EE230E2EFD01BC01EF
:100C860031F076956795F795E7950A94D1F708952B
:100C9600EE0FFF1FEE0FFF1F0895FE2FFF0FFF0B36
:100CA6006F2F7F2F08956F2F660F660B762F08958F
:100CB6007A9F702D6B9F700DF89F700DE99F700DD8
:100CC6006A9F602D710DFB9F600D711DE89F600D81
:100CD600711D8827FA9FF02D610D781FEB9FF00D8F
:100CE600611D781FEA9FE02DF10D681F781F08959A
:100CF600002498E0AA0F001C0E1A10F40E0E01C074
:100D0600A1609A95B9F7EA2FA02D08953AD0F0DFA1
:100D16000EF4E19508953F934F935F9300241124B9
:100D26003327442750E2AA0FBB1F881F991F001CB8
:100D3600111C331F441F0E1A1F0A360B470B28F4CB
:100D46000E0E1F1E361F471F01C0A1605A9559F788
:100D5600FD01BC01D001832F942F5F914F913F91EC
:100D66000895E894A7FF02C0A1956894E7FDE19570
:100D7600BFDFEA2F0EF4E1950895CDDFFD01BC013A
:100D86000895E894E7FF02C0E1956894A7FF04C0C0
:100D9600A19500F8039400FA0895ED91FC9111973E
:100DA6000895ED91FD916D917C91139708950590AD
:100DB600159065917491F00108957A936A93FA9368
:100DC600EA930895182E862F612D192E972F712DCF
:100DD6001B2EBF2FF12D1A2EAE2FE12D0895309721
:100DE6006040704009F07058089550E8572711F494
:100DF6005F93D1C05F3F31F0660F000C5795679542
:100E0600752F08955F9300200AF0CBC0BEC050E84E
:100E1600192E1522880F991F9527550F879550E88B
:100E2600072E0522660F771F7527550F67950895BC
:100E36005F93F5DF703818F07F3F08F4ACC056E1D9
:100E4600571B92F45195583028F0EFEFFFEF6FEFF4
:100E56007FE71AC077275523B9F0EE0FFF1F661FED
:100E6600771F5A95D1F710C07727583028F0EF2F03
:100E7600F62F672F5850F9CF552331F076956795A1
:100E8600F795E7955A95D1F700200AF4ECDE5F91C5
:100E96000895689401C0E894309760407040B1F0BE
:100EA600002426F0772312F40094DDDE172E7EE16F
:100EB600112032F07A95EE0FFF1F661F111CF9CF35
:100EC600EF2FF62F612D5F9390DF5F9108955E2FD0
:100ED600EA2FA52F5F2FFB2FB52F562F682F852FB3
:100EE600572F792F952F502D012C152E0895EA0F87
:100EF600FB1F681F0895E095F0956095EF5FFF4F23
:100F06006F4F08955F9383DF903871F150E815268F
:100F160004C05F937CDF903839F1703821F1572F88
:100F2600591B13F112F4D3DFFACF583118F0AA2760
:100F3600BB278827583028F0AB2FB82F8827585062
:100F4600F9CF552329F08695B795A7955A95D9F7E0
:100F5600502D512562F0CBDF38F46795F795E7956C
:100F6600739513F41EC0B3DF40DF5F910895EA1B4B
:100F7600FB0B680B81F010F40094BDDF6623A2F32F
:100F8600EE0FFF1F661F7A95CBF7EFEFFFEF6FE7C8
:100F96007FEF5F910895EE27FF27662777275F91FA
:100FA6000895EFEFFFEF6FE77FE75F9108955F9397
:100FB6002EDF703881F3903871F301240894791F7D
:100FC60023F44CF300200AF3ECCF3F934F93112404
:100FD60033274427552798E1330F441F551FEE1F2B
:100FE600FF1F661F30F43A0F4B1F581FE11DF11DFE
:100FF600611D9A9589F74F913F9166232AF0550F07
:10100600EE1FFF1F661F02C07395E3F2EEDE5F91CF
:1010160008955F93FCDE703819F4112012F6B5CFEF
:10102600903809F4B8CF01240894970B1BF4D4F335
:101036000020F4CF792F6695F795E7958695B795B5
:10104600A7954F9311244427552798E1AE17BF075C
:10105600860728F0AE1BBF0B860B089401C0889448
:10106600111C441F551FAA1FBB1F881F9A9571F795
:10107600E12DF42F652FA695E91FF91F691F4F91E2
:1010860066232AF0EE0FFF1F661F7A955BF2ADDE30
:101096005F91089599239AF0772342F0971748F0C5
:1010A60029F4AE17BF07860720F031F0989488948C
:1010B6000895989408940895189488940895772329
:1010C600C2F7971798F3A9F7EA17FB07680788F39B
:1010D60099F3ECCF309760407040089510978040A8
:1010E600904008955A934A933A932A931A930A93EF
:1010F60008955D814C813B812A811981088108957B
:00000001FF
